:020000040000FA
:060000000A128A110E280D
:10000800FE00030EF0000408F1000A08F2000A12CC
:100018008A114C290A128A11112883132A30FD00EB
:100028000130FE00E830FF00203084000A128A11F7
:10003800CB210A128A11F901FA0183010A128A11E5
:10004800DA2983120313AC01F41F2B282C28332838
:10005800F309F409F30A0319F40AAC01AC0AF61F10
:10006800362837284028F509F609F50A0319F60A4B
:100078000130AA002A08AC06AD01AE017308740469
:100088000319472848287F28AB01AB0A56280130B6
:100098000310F30DF40DFF3E031D4C280130AA0098
:1000A8002A08AB07F41F59285A284B280130031097
:1000B800AD0DAE0DFF3E031D5B2874087602031DCF
:1000C800672873087502031C6A286B28722873084E
:1000D800F5027408031CF603F6022D140130031010
:1000E800F40CF30CFF3E031D73280130AB02031D13
:1000F8007E287F285A282C080319832884288928D1
:10010800AD09AE09AD0A0319AE0A2E08F4002D0890
:10011800F3000800831203130708AF002F08F80044
:100128006430F3000030F4007808AF00B0012F0805
:10013800F5003008F6000A128A1125200A128A11E1
:10014800730883120313B1003108B5006430F3005B
:100158000030F4007808AF00B0012F08F50030082F
:10016800F6000A128A11F1200A128A117308831202
:100178000313B1003108F7000A30F3000030F4002F
:100188007708AF00B0012F08F5003008F6000A1212
:100198008A1125200A128A11730883120313B100E9
:1001A8003108B4000A30F3000030F4007708AF00DB
:1001B800B0012F08F5003008F6000A128A11F12064
:1001C8000A128A11730883120313B1003108B200AE
:1001D8003208AF002F08B300080083120313AC01E4
:1001E800F61FF728F828FF28F509F609F50A031974
:1001F800F60AAC01AC0AF41F022903290829F309FD
:10020800F409F30A0319F40A7308740403190D298D
:100218000E293D29AB01AB0A1C2901300310F30D4F
:10022800F40DFF3E031D12290130AA002A08AB076E
:10023800F41F1F292029112974087602031D262975
:1002480073087502031C29292A2930297308F50225
:100258007408031CF603F60201300310F40CF30CC7
:10026800FF3E031D31290130AB02031D3C293D2906
:1002780020292C080319412942294729F509F6099B
:10028800F50A0319F60A7608F4007508F300080061
:100298000B1D4F2950298229831203130910891431
:1002A8003408203E84008313000888000130F900D8
:1002B8000030FA0079037A04031D632964296F2941
:1002C800891009153508203E84000008880002308E
:1002D800F9000030FA00023079067A04031D752906
:1002E80076297F29091109143308203E8400000863
:1002F8008800F901FA010B11FF3081000B1C8529D8
:10030800862997298312031306188B298C298F298C
:100318000708013E8700861892299329962907081D
:10032800FF3E87000B1072088A0071088400700E67
:100338008300FE0E7E0E09008316031788018901CB
:100348008316031306148614870188018901831212
:1003580003138601870188018901831603130F138C
:100368008F160F120F1481128111011581140114B7
:10037800811303309500161496148B178B150B10E8
:100388008B160B1108007E088A007F0882000A126B
:100398008A11C7210A128A118000840A04087D067E
:1003A80003190034FF0A0319FE0ACB290A128A111D
:1003B800A0210A128A110A128A118E200A128A11A1
:1003C800DF290A128A110E283F3406345B344F3471
:0C03D80066346D347D3407347F346F349C
:04400E00C430FF3F7C
:00000001FF
